:100000000C948C1E0C94BD1E0C94BD1E0C94BD1E35
:100010000C94BD1E0C94BD1E0C94BD1E0C94BD1EF4
:100020000C94BD1E0C94BD1E0C94BD1E0C94BD1EE4
:100030000C94BD1E0C94B26C0C94BD1E0C94BD1E91
:100040000C94BD1E0C94DE910C94BD1E0C94BD1E30
:100050000C94BD1E0C94BD1E0C94D3D90C948766D1
:100060000C94BD1E0C946F470C94BD1E0C94BD1EC9
:100070000C94BD1E0C94BD1E0C94BD1E0C94BD1E94
:100080000C94BD1E0C94BD1E0C94BD1E0C94BD1E84
:100090000C94BD1E0C94BD1E0C94BD1E0C94BD1E74
:1000A0000C94BD1E0C94BD1E0C94BD1E0C94BD1E64
:1000B0000C94BD1E0C94BD1E0C94BD1E0C94BD1E54
:1000C0000C94BD1E0C94BD1E0C94BD1E0C94BD1E44
:1000D0000C94BD1E0C94BD1E0C94BD1E0C94BD1E34
:1000E0000C94BD1E05650865F764FB6401653F65FA
:1000F0000C65106516651A651E65246528652C65F6
:100100003F65326536653A65A365A865AD65B76537
:10011000C1653A66CB65D365DB65E565EF65F96575
:10012000086612663A661C6626663066EC8FF58FA6
:10013000FC8F029008900E9018901E90FEDA0EDB55
:100140002DDB3DDB58DB68DB83DB88DB8BDB90DB87
:1001500093DB98DBA2DB084AD73B3BCE016E84BC25
:10016000BFFDC12F3D6C74319ABD56833DDA3D0011
:10017000C77F11BED9E4BB4C3E916BAAAABE00005A
:1001800000803F05A84CCDB2D44EB93836A9020C38
:1001900050B9918688083CA6AAAA2ABE0000008011
:1001A0003F000D949E060D947D06434F4D4D554ED8
:1001B00049434154494F4E0044525952554E00450F
:1001C00052524F525300494E464F004543484F004C
:1001D0005265706F736F2E2E2E00536F6E64612008
:1001E0005A2066756572610A00536F6E6461205A09
:1001F00020667565726100473238205A2050726F50
:1002000068696269646F0A00473238205A20507268
:100210006F68696269646F004731205A3520592D33
:100220003230205830204631323030300A4D3432AE
:10023000302053310028422961636B00284629721F
:100240006F6E74002852296967687400284C29650C
:1002500066740052756E6E696E6720696E20445236
:10026000592D52554E206D6F64650A004732392072
:100270004175746F20426564204C6576656C696ECB
:10028000670A003F2856296572626F7365204C65C6
:1002900076656C20697320696D706C617573696235
:1002A0006C652028302D34292E0A00205A3A20006F
:1002B00020593A200042656420583A200041726576
:1002C000676F4357205478696D79334431206C69E6
:1002D0007374612E00526573756D69656E646F206D
:1002E000696D7072652E004573706572616E646F22
:1002F000206F7264656E65730053696E206D6F7652
:10030000696D69656E746F00456E642066696C6521
:10031000206C6973740A00426567696E2066696CB7
:1003200065206C6973740A005344207072696E749E
:10033000696E67206279746520004E6F74205344A3
:10034000207072696E74696E670A0046696C652078
:1003500064656C657465643A0044656C6574696FC6
:100360006E206661696C65642C2046696C653A2074
:10037000006F70656E206661696C65642C2046694B
:100380006C653A200043616E6E6F74206F70656E0D
:100390002073756264697220002569730025696D98
:1003A00020256973002569682025696D20256973FA
:1003B00000256964202569682025696D20256973F9
:1003C0000025697920256964202569682025696DE3
:1003D00020256973005072696E742074696D653AE6
:1003E000200050726F7465637465642050696E0AF2
:1003F0000043616C656E74616E646F2E2E2E004139
:100400007265676F4357205478696D7933443120A2
:100410006C697374612E00CB01C601BF01B801AADB
:10042000016F66660044454255473A00506172616B
:10043000646120646520656D657267656E636961DE
:10044000004D3131332053006F6B00506C6174618B
:10045000666F726D612043616C69656E7465003F03
:100460000A0020573A0043616C656E74616E646FD8
:1004700020506C61742E2E2E00417265676F4357B9
:10048000205478696D79334431206C697374612E1E
:1004900000417265676F4357205478696D79334422
:1004A00031204170616761722E004649524D5741BB
:1004B00052455F4E414D453A4D61726C696E203137
:1004C0002E312E302D5243427567466978202847D9
:1004D00069746875622920534F555243455F434FF5
:1004E00044455F55524C3A68747470733A2F2F67C5
:1004F00069746875622E636F6D2F4D61726C696EE1
:100500004669726D776172652F4D61726C696E20FC
:1005100050524F544F434F4C5F56455253494F4EE4
:100520003A312E30204D414348494E455F54595091
:10053000453A417265676F4357205478696D793346
:1005400044312045585452554445525F434F554E0F
:10055000543A3220555549443A396336396338396B
:10056000622D393838632D346134652D6162663708
:100570002D6565333964386662613635310A007A33
:100580005F6D696E3A2000795F6D696E3A20007880
:100590005F6D696E3A20005265706F7274696E67A4
:1005A00020656E6473746F70207374617475730A60
:1005B000004D31343520533C696E6465783E206FC0
:1005C0007574206F662072616E67652028302D314A
:1005D000290A0023646566696E652020444546410A
:1005E000554C545F4B64200023646566696E65203A
:1005F0002044454641554C545F4B692000236465B7
:1006000066696E65202044454641554C545F4B70E9
:100610002000504944204175746F74756E652066E2
:10062000696E69736865642120507574207468650B
:10063000206C617374204B702C204B6920616E64B8
:10064000204B6420636F6E7374616E7473206672E6
:100650006F6D2062656C6F7720696E746F20436FD9
:100660006E66696775726174696F6E2E680A0050F4
:100670004944204175746F74756E65206661696CBC
:100680006564212074696D656F75740A0050494472
:10069000204175746F74756E65206661696C656460
:1006A000212054656D706572617475726520746F78
:1006B0006F20686967680A00204B643A2000204B6D
:1006C000693A2000204B703A20000A20436C617385
:1006D00073696320504944200A002054753A200071
:1006E000204B753A2000206D61783A2000206D691A
:1006F0006E3A200020643A200020626961733A203B
:1007000000426564204C6576656C696E6720004622
:1007100061696C656420746F20656E61626C652030
:10072000426564204C6576656C696E670A004465B5
:1007300073666173652061706C696361646F004505
:1007400072723A20546F6F206661722100546F6F8D
:10075000206661722066726F6D20726566657265D3
:100760006E636520706F696E740A006F6E0A006FA9
:1007700066660A0043617365206C6967687473205C
:1007800000556E6B6E6F776E20636F6D6D616E647A
:100790003A2022004E6F204C696E65204E756D62C6
:1007A0006572207769746820636865636B73756D23
:1007B0002C204C617374204C696E653A20005061A6
:1007C0007261646120646520656D657267656E6342
:1007D000696100446574656E696461005072696E98
:1007E0007465722073746F70706564206475652021
:1007F000746F206572726F72732E20466978207450
:100800006865206572726F7220616E642075736511
:10081000204D39393920746F207265737461727498
:100820002E202854656D706572617475726520693B
:10083000732072657365742E20536574206974206B
:1008400061667465722072657374617274696E6733
:10085000290A004E6F20436865636B73756D2077BE
:10086000697468206C696E65206E756D6265722CA6
:10087000204C617374204C696E653A200063686592
:10088000636B73756D206D69736D617463682C2083
:100890004C617374204C696E653A20004C696E653A
:1008A000204E756D626572206973206E6F74204CE6
:1008B000617374204C696E65204E756D6265722B94
:1008C000312C204C617374204C696E653A20004DC8
:1008D000313130004D3331004D383420582059200B
:1008E0005A20450053442072656164206572726F1E
:1008F000720A00446F6E65207072696E74696E676B
:100900002066696C650A0020496E76616C69642016
:10091000657874727564657220000000744300008D
:10092000CD430000754300000000000000000000FF
:1009300000004578747275736F7232004578747276
:1009400075736F7231004578747275736F72004DF4
:100950006F766572205A004D6F7665722059004D92
:100960006F76657220580050726570617261720016
:10097000526573746175726172206D656D6F726915
:100980006100436172676172206D656D6F726961AC
:100990000047756172646172206D656D6F72696187
:1009A0000046696C616D656E746F004D6F76696DA0
:1009B00069656E746F0054656D70657261747572EF
:1009C00061004D656E75207072696E636970616C4F
:1009D0000050726563616C656E74617220414253B0
:1009E000436F6E6669670050726563616C656E7413
:1009F000617220504C41436F6E66696700504944F4
:100A00002D44204532005049442D442045320050A9
:100A100049442D49204532005049442D4920453252
:100A2000005049442D50204532005049442D50205B
:100A30004532005049442D44204531005049442D51
:100A400044204531005049442D492045310050494A
:100A5000442D49204531005049442D502045310056
:100A60005049442D502045310020082046616374D0
:100A70000020082046616374002008204D61780042
:100A80002008204D6178002008204D696E00200864
:100A9000204D696E0041706167617200456E63654B
:100AA0006E6465720054656D706572617475726113
:100AB000204175746F2E0056656E74696C61646FA9
:100AC000720056656E74696C61646F7200506C617F
:100AD0007461666F726D6100506C617461666F72F3
:100AE0006D6100426F7175696C6C61203200426FFC
:100AF0007175696C6C61203200426F7175696C6C44
:100B000061203100426F7175696C6C612031004366
:100B10006F6E74726F6C0047756172646172206DE4
:100B2000656D6F72696100506C617461666F726DA2
:100B30006100506C617461666F726D6100426F712B
:100B400075696C6C6100426F7175696C6C610056FF
:100B5000656E74696C61646F720056656E74696C61
:100B600061646F720054656D706572617475726155
:100B700000205A3A0020593A0020436F756E7420C5
:100B8000583A200020453A00205A3A0020593A00AD
:100B9000583A0053657474696E67205472617665C3
:100BA0006C20416363656C65726174696F6E3A2095
:100BB0000053657474696E67205265747261637462
:100BC00020416363656C65726174696F6E3A2000E1
:100BD00053657474696E67205072696E7420416346
:100BE00063656C65726174696F6E3A200053657459
:100BF00074696E67205072696E7420616E6420544F
:100C0000726176656C20416363656C6572617469BD
:100C10006F6E3A2000205A00205900580020204DC5
:100C200061783A2000205A00205900580020204DB9
:100C3000696E3A2000456E63656E646572004170AE
:100C40006167617200536F667420656E6473746FC0
:100C500070733A2000486F74656E64206F66667327
:100C60006574733A0020643A0020693A0020703AB3
:100C70000020653A0043290A0061626C65642028FF
:100C80006D696E2074656D702000436F6C64206523
:100C9000787472756465732061726520003A200073
:100CA0007A5F6D61783A20007A5F6D696E3A200054
:100CB00044657366617365205A004D3630302048B4
:100CC0006F74656E6420746F6F20636F6C64207442
:100CD0006F206368616E67652066696C616D656E23
:100CE000740A00416374697665204578747275648E
:100CF00065723A20004E6F206D6F7665206F6E2012
:100D0000746F6F6C6368616E67650A004572726F1D
:100D1000722077726974696E6720746F2045455040
:100D2000524F4D210A00206279746573290A0053DD
:100D3000657474696E67732053746F7265642028DC
:100D400000454550524F4D20636865636B73756D68
:100D5000206D69736D617463680A0020627974653F
:100D600073290A002073746F72656420736574744C
:100D7000696E677320726574726965766564202890
:100D80000000002100240027002A002D003000333D
:100D90000001010000040107010A010000220025F2
:100DA0000028002B002E0031003400020100000555
:100DB0000108010B01000020002300260029002C5F
:100DC000002F0032000001000003010601090105A7
:100DD000050505070508080808020202020A0A08B4
:100DE00008040404040101010101010101030303DA
:100DF0000303030303040707070C0C0C0C0C0C0C77
:100E00000C0202020206060606060606060B0B0B7D
:100E10000B0B0B0B0B0102102020080810204010B8
:100E200020408002010201080402010102040810AE
:100E300020408080402010080402018004020180CC
:100E400040201008040201080402010102040810F5
:100E5000204080010204081020408000000A0B029C
:100E6000090C0D0E0807030401000000000000003B
:100E70000000000000000000000000000000000072
:100E8000000000000000001211100000000000002F
:100E90000000000000000000000000000000000052
:100EA000000250617261646120646520656D657245
:100EB00067656E63696100202D20496E76616C69FB
:100EC00064206578747275646572206E756D6265F4
:100ED0007220210A002020506C616E6E657242758E
:100EE0006666657242797465733A200020467265C1
:100EF00065204D656D6F72793A2000436F6D7069A2
:100F00006C65643A204A616E2031372032303137C7
:100F10000A00207C20417574686F723A20286E6F39
:100F20006E652C2064656661756C7420636F6E66F7
:100F30006967290A00323031362D31322D303620A2
:100F400031323A303000204C617374205570646146
:100F50007465643A2000312E312E302D5243427593
:100F6000674669780A004D61726C696E0020536FA4
:100F70006674776172652052657365740A00205744
:100F800061746368646F672052657365740A00203A
:100F900042726F776E206F75742052657365740AA4
:100FA000002045787465726E616C205265736574BB
:100FB0000A00506F77657255700A0073746172741D
:100FC0000A006572726F722077726974696E6720A9
:100FD000746F2066696C650A00456E6473746F7087
:100FE0007320256320256320256320256300205A74
:100FF0003A0020593A0020583A00656E6473746FC5
:101000007073206869743A2000446F6E65207361C4
:1010100076696E672066696C652E0A004D3239006C
:1010200020706F736974696F6E206F7574206F66BE
:101030002072616E67652E0A003F50726F626520F4
:10104000005374616E6461726420446576696174F2
:10105000696F6E3A20002052616E67653A20002069
:101060004D61783A2000204D696E3A20004D65614F
:101070006E3A200046696E697368656421002072CB
:10108000616E67653A2000206D61783A2000206D1E
:10109000696E3A2000207369676D613A2000206D07
:1010A00065616E3A20003A207A3A2000206F66206F
:1010B00000205A00205900205800476F696E6720B1
:1010C000746F3A00436C6F636B776973650A004312
:1010D0006F756E7465722D00204469726563746962
:1010E0006F6E3A2000202020616E676C653A200008
:1010F0005374617274696E67207261646975733AC2
:101100002000506F736974696F6E696E6720746830
:10111000652070726F62652E2E2E0A003F4E756D2F
:10112000626572206F66206C65677320696E206D42
:101130006F76656D656E74206E6F7420706C61756E
:101140007369626C652028302D3135292E0A0059CB
:101150000058003F53616D706C652073697A65209B
:101160006E6F7420706C61757369626C65202834D1
:101170002D3530292E0A004D3438205A2D50726FEB
:101180006265205265706561746162696C69747929
:1011900020546573740A003F566572626F73652050
:1011A0004C6576656C206E6F7420706C6175736928
:1011B000626C652028302D34292E0A002040002042
:1011C00042403A0020403A00202F00205400202FB7
:1011D0000020423A00202F0020543A0043616C6501
:1011E0006E74616D69656E746F206C6973746F00E5
:1011F0003F0A0020573A0043616C656E74616E646B
:101200006F2E2E2E00417265676F43572054786908
:101210006D79334431206C697374612E00507265AE
:1012200063616C656E74617220414253506C6174ED
:1012300061666F726D610050726563616C656E749A
:10124000617220414253546F646F00507265636154
:101250006C656E7461722041425320320050726599
:1012600063616C656E74617220414253203100509D
:1012700072657061726172004D34323800496E6976
:1012800063696F206175746F6D617469636F004D80
:10129000383000456E63656E646572004D3831000C
:1012A00041706167617200456E66726961720043E8
:1012B000616D626961722066696C616D656E746FE3
:1012C0000050726563616C656E74617220414253B7
:1012D0000050726563616C656E74617220504C41A0
:1012E000004D383400417061676172206D6F746F1A
:1012F00072657300416A7573746172206465736608
:1013000061736573004732380A4732390047323912
:10131000004E6976656C617220706C617461666FF5
:10132000726D6100473238205A004F726967656EEE
:10133000205A004732382059004F726967656E2085
:1013400059004732382058004F726967656E20583F
:1013500000473238004C6C6576617220616C206FFA
:10136000726967656E004D6F76657220656A657398
:10137000004D656E75207072696E636970616C00F6
:101380004D6F7665722058004D6F7665722059005A
:101390004D6F766572205A004578747275736F725E
:1013A00032004578747275736F7231004D6F7665D7
:1013B0007220302E316D6D004D6F76657220316D6B
:1013C0006D004D6F7665722031306D6D004D6F761A
:1013D000657220656A6573004578747275736F7203
:1013E000004D6F766572205A004D6F7665722059F8
:1013F000004D6F7665722058005461726A657461A1
:10140000207265746972616461005461726A657406
:101410006120636F6C6F636164610000060900FE08
:10142000070192032120FFFF08FF07FF00000006CD
:101430000000010707060200808080808000800392
:101440000202060105A0A00507070600005050F89B
:1014500050F850500507070600002078A07028F0CB
:1014600020050707060000C0C8102040981805078F
:10147000070600006090A040A890680203030601E0
:1014800004C04080030707060100204080808040A0
:10149000200307070601008040202020408005052A
:1014A0000506000120A870A82005050506000120FA
:1014B00020F820200203030602FFC040800501013E
:1014C000060003F8020202060200C0C00505050678
:1014D000000108102040800507070600007088887A
:1014E0008888887003070706010040C040404040DC
:1014F000E0050707060000708808708080F805077F
:1015000007060000F81020100808F005070706007D
:101510000010305090F81010050707060000F88002
:10152000F008088870050707060000708080F088C2
:101530008870050707060000F80810202020200505
:1015400007070600007088887088887005070706FE
:10155000000070888878080870020505060200C03F
:10156000C000C0C00206060602FFC0C000C0408026
:1015700004070706000010204080402010050303E8
:10158000060002F800F8040707060100804020105A
:101590002040800507070600007088081020002002
:1015A00005070706000070880868A8A870050707E7
:1015B000060000708888F8888888050707060000FC
:1015C000F08888F08888F00507070600007088809A
:1015D00080808870050707060000F0888888888862
:1015E000F0050707060000F88080F08080F8050706
:1015F00007060000F88080F080808005070706005D
:1016000000708880B8888870050707060000888801
:1016100088F888888801070706020080808080801B
:101620008080050707060000381010101090600534
:1016300007070600008890A0C0A09088050707064D
:101640000000808080808080F80507070600008801
:10165000D8A8888888880507070600008888C8A851
:101660009888880507070600007088888888887031
:10167000050707060000F08888F0808080050707CE
:1016800006000070888888A8906805070706000093
:10169000F08888F0A0908805070706000078808011
:1016A000700808F0050707060000F8202020202019
:1016B0002005070706000088888888888870050745
:1016C00007060000888888888850200507070600DC
:1016D000008888888888A850050707060000888841
:1016E0005020508888050707060000888888502009
:1016F0002020050707060000F80810204080F803A6
:101700000707060100E08080808080E0050505066F
:1017100000018040201008030707060100E0202098
:10172000202020E005030306000420508805010165
:10173000060000F8020202060205804005050506C3
:10174000000070087888780507070600008080B0E0
:10175000C88888F00505050600007080808870053F
:1017600007070600000808689888887805050506B8
:1017700000007088F880700507070600003048E018
:10178000404040400506060600FF708888780870D3
:101790000507070600008080B0C888888801070711
:1017A000060200800080808080800308080601FF18
:1017B000200020202020A040040707060000808091
:1017C00090A0C0A090030707060100C04040404021
:1017D00040E0050505060000D0A8A8A8A805050555
:1017E000060000B0C88888880505050600007088D6
:1017F0008888700506060600FFF08888F08080055E
:1018000006060600FF7888887808080505050600A2
:1018100000B0C88080800505050600007080700853
:10182000F00407070600004040E040404030050556
:101830000506000088888898680505050600008868
:10184000888850200505050600008888A8A850054E
:10185000050506000088502050880506060600FF92
:10186000888888780870050505060000F810204073
:10187000F803070706010020404080404020010790
:1018800007060200808080808080800307070601B1
:10189000008040402040408005020206000268901F
:1018A0000000000600000000000600000000000626
:1018B000000000000006000000000006000000001C
:1018C0000006000000000006000000000006000006
:1018D00000000006000000000006000000000006F6
:1018E00000000000000600000000000600000000EC
:1018F00000060000000000060000000000060000D6
:1019000000000006000000000006000000000006C5
:1019100000000000000600000000000600000000BB
:1019200000060000000000060000000000060000A5
:101930000000000600000000000600000000000695
:10194000000000000006000000000006000000008B
:101950000006000000000006000000000006000075
:101960000000000600000000000600000107070656
:10197000020080008080808080050707060000202C
:1019800070A8A0A87020050707060000304040E0BE
:101990004050A805050506000088705070880507AE
:1019A00007060000885020F820F8200107070602EB
:1019B0000080808000808080050808060000304894
:1019C000205050209060030101060107A005070781
:1019D000060000F888B8B8B888F8050707060001BF
:1019E000700878887800F80505050600012850A0E1
:1019F0005028050303060001F80808020202060247
:101A0000064080050707060000F888A88898A8F80F
:101A1000050101060006F804040406000360909026
:101A2000600507070600002020F8202000F80405C4
:101A30000506000360902040F0030505060003E062
:101A400020E020E0020202060206408005080806A7
:101A500000FF8888888898E88080050707060000CE
:101A600078989878181818020202060202C0C0027C
:101A700002020602FF408003050506000340C04045
:101A800040E0050707060001708888887000F805A7
:101A90000505060001A0502850A005070706000014
:101AA0008890A858B808080507070600008890B86D
:101AB00048982038050808060000C040C048D838BB
:101AC00008080507070600002000204080887005F0
:101AD00008080600004020007088F888880508087B
:101AE0000600001020007088F888880508080600A5
:101AF000002050007088F8888805080806000068F3
:101B000090007088F888880508080600005000706A
:101B10008888F8888805080806000020502070880A
:101B2000F888880507070600003860A0B8E0A0B86C
:101B30000508080600FF708880808870206005080E
:101B400008060000402000F880F080F8050808062C
:101B50000000081000F880F080F805080806000072
:101B6000205000F880F080F80507070600005000BC
:101B7000F880F080F8030808060100804000E0408B
:101B80004040E0030808060100204000E0404040DB
:101B9000E003080806010040A000E0404040E003E8
:101BA0000707060100A000E0404040E005070706E7
:101BB0000000704848E848487005080806000068BA
:101BC000900088C8A8988805080806000040207082
:101BD00088888888700508080600001020708888AA
:101BE00088887005080806000020500070888888E2
:101BF00070050808060000689000708888887005E5
:101C0000080806000050007088888888700505055F
:101C100006000188502050880508080600FF107053
:101C2000A8A8A8A8704005080806000040208888D9
:101C30008888887005080806000010208888888831
:101C40008870050808060000205000888888887081
:101C500005080806000050008888888888700508F4
:101C600008060000102088502020202005090906C1
:101C700000FFC040704848704040E004080806017A
:101C8000FF609090A09090E080050808060000405A
:101C900020007008788878050808060000102000E9
:101CA0007008788878050808060000205000700841
:101CB0007888780508080600006890007008788821
:101CC0007805070706000050007008788878050836
:101CD000080600002050207008788878050606065F
:101CE0000000D02878A0A8500506060600FF7080E6
:101CF000887020600508080600004020007088F801
:101D000080700508080600001020007088F88070B8
:101D10000508080600002050007088F8807005074C
:101D20000706000050007088F8807003080806015C
:101D30000080400040C04040E00308080601002049
:101D4000400040C04040E003080806010040A000F9
:101D500040C04040E0030707060100A00040C0402B
:101D600040E0050707060000A040A0107888700535
:101D70000808060000689000B0C888888805080830
:101D8000060000402000708888887005080806005A
:101D90000010200070888888700508080600002060
:101DA0005000708888887005080806000068900058
:101DB00070888888700507070600005000708888C2
:101DC00088700505050600012000F80020050707BA
:101DD0000600FF1070A8A8A87040050808060000BB
:101DE00040200088888898680508080600001020B0
:101DF0000088888898680508080600002050008838
:101E00008888986805070706000050008888889829
:101E1000680509090600FF102000888888F8087006
:101E20000407070601FFC04060506040E005080855
:101E30000600FF500088888878087054656D7065CA
:101E4000726174757261206D6178696D613A2031DB
:101E500035300054656D7065726174757261206D06
:101E6000696E696D613A203500544265643A4D618E
:101E70006B65727320546F6F6C0054656D70657282
:101E80006174757261206D6178696D613A203237D5
:101E9000350054656D7065726174757261206D698D
:101EA0006E696D613A202D31350054313A2045502C
:101EB000434F53203130304B0054656D7065726173
:101EC00074757261206D6178696D613A20323735C1
:101ED0000054656D7065726174757261206D696E14
:101EE000696D613A20350054303A204550434F53D4
:101EF000203130304B004675656E74652064652076
:101F0000706F6465723A204154580050726F746F5C
:101F1000636F6C6F3A20312E300042617564696FD7
:101F2000733A203235303030300052414D5053201A
:101F3000312E34004578747275736F7265733A2070
:101F40003200687474703A2F2F6D61726C696E661E
:101F5000772E6F726700417265676F435720547820
:101F6000696D7933443100323031362D31322D30C4
:101F7000362031323A303000312E312E302D52435E
:101F8000427567466978004D61726C696E005465F0
:101F9000726D6973746F72657300496E662E2043AB
:101FA0006F6E74726F6C61646F7200496E662E2082
:101FB000496D707265736F7261004D656E7520704A
:101FC00072696E636970616C0043616D6269617210
:101FD0002066696C616D656E746F004572726F7218
:101FE0003A20616C2063616C656E746172004578A3
:101FF0007472756972206D617300526573756D69D5
:102000007220696D702E004F7063696F6E6573206A
:1020100064652063616D62696F3A0063616D626936
:1020200061720064656C2066696C616D656E746FC9
:10203000004573706572616E646F20696E696369D3
:1020400061720043616D626961722046696C616D05
:10205000656E746F0066696C616D656E746F206586
:102060007870756C7361646F00457370657261643C
:102070006F20706F720043616D6269617220466902
:102080006C616D656E746F007061726120636F6E5C
:1020900074696E7561722E2E2E00792070726573D0
:1020A000696F6E6520656C20626F746F6E00496E9B
:1020B00073657274652066696C616D656E746F001E
:1020C00043616D626961722046696C616D656E7411
:1020D0006F004361726761722066696C616D656E45
:1020E000746F00457370657261646F20706F720069
:1020F00043616D626961722046696C616D656E74E1
:102100006F00457874727569722066696C616D65DF
:102110006E746F00457370657261646F20706F72CA
:102120000043616D626961722046696C616D656E24
:10213000746F007061726120726573756D697200F1
:102140004573706572616E646F20696D702E004317
:10215000616D626961722046696C616D656E746F54
:102160000024F4D43050C38E20C2A24017828B705A
:1021700011127A910D816CD90AA861E108C75866DD
:1021800007615143061E4B5D05C145A7041A411165
:1021900004093D9803713931034036DB0265339100
:1021A00002D4305402802E1D02632CEE01752AC524
:1021B00001B028A001102781018F2564012B244B39
:1021C00001E0223401AC211F018D200D01801FFC94
:1021D00000841EED00971DDF00B81CD200E61BC670
:1021E00000201BBC00641AB200B219A8000A19A092
:1021F000006A189900D117910040178B00B516841A
:102200000031167E00B31579003A157300C7146FBC
:102210000058146A00EE1366008813630025135EED
:1022200000C7125B006C12570015125400C1115107
:102230000070114F0021114B00D61049008D10473E
:10224000004610440002104200C00F4000800F3EC4
:1022500000420F3C00060F3B00CB0E3800930E37B8
:10226000005C0E3500270E3400F30D3200C10D3135
:1022700000900D3000600D2E00320D2D00050D2C4C
:1022800000D90C2B00AE0C2900850C29005C0C2712
:1022900000350C27000E0C2600E80B2400C40B248C
:1022A00000A00B23007D0B23005A0B2100390B21CA
:1022B00000180B2000F80A1F00D90A1E00BB0A1ED6
:1022C000009D0A1D00800A1D00630A1C00470A1BAE
:1022D000002C0A1B00110A1A00F7091A00DD09195F
:1022E00000C4091900AB091900920917007B0918ED
:1022F00000630917004C091600360916002009165C
:10230000000A091500F5081500E0081400CC0814AF
:1023100000B8081400A4081400900813007D0812E7
:10232000006B081300580812004608120034081108
:1023300000230811001208110001081100F0071015
:1023400000E0071000D0071000C0071000B0070F12
:1023500000A107100091070E0083070F0074070FFC
:102360000065070E0057070E0049070E003B070DDA
:10237000002E070E0020070D0013070D0006070DA5
:1023800000F9060C00ED060D00E0060C00D4060C6A
:1023900000C8060C00BC060C00B0060C00A4060B1E
:1023A0000099060C008D060B0082060B0077060BC9
:1023B000006C060B0061060A0057060B004C060A6B
:1023C0000042060A0038060A002E060A0024060A01
:1023D000001A060A001006090007060A00FD050992
:1023E00000F4050900EB050900E2050900D905091B
:1023F00000D0050900C7050900BE050900B505089C
:1024000000AD050800A50509009C05080094050815
:10241000008C050800840508007C05080074050888
:10242000006C050700650508005D050700560508F6
:10243000004E05070047050700400508003805075E
:1024400000310507002A050700230507001C0506C3
:1024500000160507000F050700080506000205071E
:1024600000FB040600F5040700EE040600E804067D
:1024700000E2040700DB040600D5040600CF0406D2
:1024800000C9040600C3040600BD040600B7040624
:1024900000B1040500AC040600A6040600A0040573
:1024A000009B04060095040500900406008A0405BC
:1024B0000085040500800406007A04050075040503
:1024C00000700405006B0405006604050061040546
:1024D000005C04050057040500520405004D040586
:1024E0000048040500430405003E0404003A0405C6
:1024F0000035040500300404002C04050027040402
:1025000000230405001E0404001A04040016040538
:1025100000110404000D040400090405000404046F
:102520000000040400FC030400F8030400F40304A6
:1025300000F0030400EC030400E8030400E40304D7
:1025400000E0030400DC030400D8030400D4030407
:1025500000D0030400CC030400C8030300C5030338
:102560000024F404D9201BC40C5C0E9804C4095F39
:102570000265077101F405F900FB04B30048048704
:1025800000C10369005803550003034500BE023A29
:10259000008402310053022A00290225000402208F
:1025A00000E4011C00C8011900AF011700980114D4
:1025B0000084011300710110006101100051010E2F
:1025C0000043010D0036010B002B010B0020010B15
:1025D00000150109000C01090003010800FB0008B7
:1025E00000F3000800EB000700E4000600DE000630
:1025F00000D8000600D2000600CC000500C7000588
:1026000000C2000500BD000400B9000400B50004CC
:1026100000B1000400AD000400A9000400A50003FF
:1026200000A20003009F0004009B00030098000329
:10263000009500020093000300900003008D00024B
:10264000008B000300880002008600020084000363
:1026500000810002007F0002007D0002007B00027A
:102660000079000200770001007600020074000289
:102670000072000100710002006F0002006D000195
:10268000006C0002006A000100690002006700019E
:1026900000660001006500010064000200620001A4
:1026A0000061000100600001005F0002005D0001A8
:1026B000005C0001005B0001005A000100590001AC
:1026C00000580001005700010056000100550001AC
:1026D00000540001005300000053000100520001AB
:1026E0000051000100500001004F0001004E0000A9
:1026F000004E0001004D0001004C0001004B0000A5
:10270000004B0001004A00010049000100480000A0
:10271000004800010047000100460000004600019B
:102720000045000000450001004400010043000096
:10273000004300010042000000420001004100008F
:102740000041000100400001003F0000003F000187
:10275000003E0000003E0001003D0000003D000181
:10276000003C0000003C0000003C0001003B000079
:10277000003B0001003A0000003A0001003900006F
:102780000039000100380000003800000038000166
:10279000003700000037000100360000003600005E
:1027A0000036000100350000003500000035000152
:1027B0000034000000340000003400010033000049
:1027C000003300000033000100320000003200003E
:1027D0000032000100310000003100000031000132
:1027E000003000000030000000300001002F000029
:1027F000002F0000002F0000002F0001002E00001D
:10280000002E0000002E0001002D0000002D000011
:10281000002D0000002D0001002C0000002C000005
:10282000002C0000002C0001002B0000002B0000F9
:10283000002B0000002B0001002A0000002A0000ED
:10284000002A0000002A00010029000000290000E1
:1028500000290000002900000029000100280000D4
:1028600000280000002800000028000000280001C7
:1028700000270000002700000027000000270000BC
:1028800000270001002600000026000000260000AE
:1028900000260000002600010025000000250000A1
:1028A0000025000000250000002500000025000193
:1028B0000024000000240000002400000024000088
:1028C000002400010023000000230000002300007A
:1028D000002300000023000000230000002300016B
:1028E0000022000000220000002200000022000060
:1028F0000022000000220001002100000021000051
:102900000021000000210000002100000021000043
:102910000021000100200000002000000020000035
:102920000020000000200000002000000020000027
:1029300000200001001F0000001F0000001F000019
:10294000001F0000001F0000001F0000001F00010A
:10295000001E0000001E0000001E0000001E0000FF
:10296000004D383420582059205A204500626564B3
:102970000A002C2073797374656D2073746F707006
:10298000656421204865617465725F49443A20009E
:1029900000002110422063308440A550C660E770DB
:1029A000088129914AA16BB18CC1ADD1CEE1EFF183
:1029B0003112100273325222B5529442F772D6622B
:1029C000399318837BB35AA3BDD39CC3FFF3DEE3D3
:1029D0006224433420040114E664C774A44485547B
:1029E0006AA54BB528850995EEE5CFF5ACC58DD523
:1029F0005336722611163006D776F6669556B446CB
:102A00005BB77AA719973887DFF7FEE79DD7BCC772
:102A1000C448E5588668A77840086118022823381A
:102A2000CCC9EDD98EE9AFF9488969990AA92BB9C2
:102A3000F55AD44AB77A966A711A500A333A122A6A
:102A4000FDDBDCCBBFFB9EEB799B588B3BBB1AAB12
:102A5000A66C877CE44CC55C222C033C600C411CBA
:102A6000AEED8FFDECCDCDDD2AAD0BBD688D499D62
:102A7000977EB66ED55EF44E133E322E511E700E0A
:102A80009FFFBEEFDDDFFCCF1BBF3AAF599F788FB2
:102A90008891A981CAB1EBA10CD12DC14EF16FE192
:102AA0008010A100C230E3200450254046706760CA
:102AB000B9839893FBA3DAB33DC31CD37FE35EF3E2
:102AC000B1029012F322D23235421452776256721A
:102AD000EAB5CBA5A89589856EF54FE52CD50DC532
:102AE000E234C324A014810466744764245405446A
:102AF000DBA7FAB79987B8975FE77EF71DC73CD782
:102B0000D326F2369106B0165766767615463456B9
:102B10004CD96DC90EF92FE9C899E9898AB9ABA9D1
:102B20004458654806782768C018E1088238A32809
:102B30007DCB5CDB3FEB1EFBF98BD89BBBAB9ABB21
:102B4000754A545A376A167AF10AD01AB32A923A59
:102B50002EFD0FED6CDD4DCDAABD8BADE89DC98D71
:102B6000267C076C645C454CA23C832CE01CC10CA9
:102B70001FEF3EFF5DCF7CDF9BAFBABFD98FF89FC1
:102B8000176E367E554E745E932EB23ED10EF01EF9
:102B90007C3C3E5E2B3D3F2F5B5D3B2C2A225C0044
:102BA0004532207061736F732F6D6D004532207058
:102BB00061736F732F6D6D004531207061736F739A
:102BC0002F6D6D004531207061736F732F6D6D0037
:102BD00045207061736F732F6D6D004520706173B8
:102BE0006F732F6D6D005A207061736F732F6D6D51
:102BF000005A207061736F732F6D6D0059207061E2
:102C0000736F732F6D6D0059207061736F732F6D2B
:102C10006D0058207061736F732F6D6D00582070B8
:102C200061736F732F6D6D004163656C2E20566963
:102C3000616A65004163656C2E205669616A6500B2
:102C40004163656C2E207265747261632E0041636E
:102C5000656C2E207265747261632E004163656C31
:102C60002E206D61784532004163656C2E206D61C8
:102C7000784532004163656C2E206D6178453100E6
:102C80004163656C2E206D61784531004163656C50
:102C90002E206D617845004163656C2E206D617852
:102CA00045004163656C2E206D61785A0041636573
:102CB0006C2E206D61785A004163656C2E206D6129
:102CC0007859004163656C2E206D6178590041632D
:102CD000656C2E206D617858004163656C2E206D07
:102CE0006178580056656C2E207669616A65206DA2
:102CF000696E0056656C2E207669616A65206D6983
:102D00006E00566D696E00566D696E00566D617885
:102D1000453200566D6178453200566D6178453117
:102D200000566D6178453100566D61784500566DED
:102D300061784500566D61785A00566D61785A0089
:102D4000566D61785900566D61785900566D6178FD
:102D50005800566D6178580056652D6A65726B0093
:102D600056652D6A65726B00567A2D6A65726B0026
:102D7000567A2D6A65726B0056792D6A65726B0002
:102D800056792D6A65726B0056782D6A65726B00F4
:102D900056782D6A65726B004163656C657261637C
:102DA000696F6E004163656C65726163696F6E0087
:102DB00044657366617365205A0044657366617388
:102DC00065205A00436F6E74726F6C0048617264C4
:102DD000636F6465642044656661756C7420536537
:102DE0007474696E6773204C6F616465640A0020B7
:102DF000204D38353320590020204D3835322058A9
:102E00000020204D383531205A005A2D50726F6203
:102E100065204F666673657420286D6D293A0A0037
:102E200020204D3230302044300A0020204D3230F6
:102E30003020543120440020204D323030204400D6
:102E40002044697361626C65640A0046696C616D57
:102E5000656E742073657474696E67733A002044FC
:102E60000020490020204D33303120500020440004
:102E700020490020500020204D33303120450050A3
:102E800049442073657474696E67733A0A0020467A
:102E90000020420020480020204D313435205300CE
:102EA0004D6174657269616C20686561747570202C
:102EB000706172616D65746572733A0A0020204D0D
:102EC0003432302053004175746F20426564204CC9
:102ED0006576656C696E673A0A00205900205800D3
:102EE00020204D323138205400486F74656E6420C4
:102EF0006F66667365747320286D6D290A00205A09
:102F00000020590020204D323036205800486F6D87
:102F100065206F666673657420286D6D290A002030
:102F20004500205A0020590020580020420020541B
:102F30000020204D323035205300416476616E63AD
:102F40006564207661726961626C65733A20533DF5
:102F50004D696E20666565647261746520286D6DCB
:102F60002F73292C20543D4D696E20747261766553
:102F70006C20666565647261746520286D6D2F73C1
:102F8000292C20423D6D696E696D756D20736567F2
:102F90006D656E742074696D6520286D73292C2011
:102FA000583D6D6178696D756D205859206A65725C
:102FB0006B20286D6D2F73292C20205A3D6D617870
:102FC000696D756D205A206A65726B20286D6D2FB2
:102FD00073292C2020453D6D6178696D756D204504
:102FE000206A65726B20286D6D2F73290A002054AA
:102FF0000020520020204D323034205000416363C5
:10300000656C65726174696F6E733A20503D7072C1
:10301000696E74696E672C20523D726574726163CB
:103020007420616E6420543D74726176656C0A0090
:1030300020450020204D323031205400205A0020FD
:10304000590020204D3230312058004D6178696D93
:10305000756D20416363656C65726174696F6E2084
:10306000286D6D2F7332293A0A0020450020204D2B
:10307000323033205400205A0020590020204D3295
:1030800030332058004D6178696D756D2066656537
:1030900064726174657320286D6D2F73293A0A007C
:1030A00020450020204D3932205400205A0020595C
:1030B0000020204D39322058005374657073207001
:1030C000657220756E69743A0A0020746F6F206C07
:1030D0006F6E6720657874727573696F6E20707299
:1030E0006576656E7465640A0020636F6C642065A4
:1030F0007874727573696F6E2070726576656E7420
:1031000065640A00627573793A207061757365644D
:1031100020666F7220696E7075740A00627573792B
:103120003A2070617573656420666F7220757365EF
:10313000720A00627573793A2070726F63657373F7
:10314000696E670A00473120582D343420463830E4
:1031500030300A4D3235005061726164612064651F
:1031600020656D657267656E6369610050617261AB
:10317000646120646520656D657267656E63696171
:1031800000506F72206661766F722C207265696ED6
:103190006963696500494D505245534F5241205073
:1031A0004152414441005072696E746572206861F9
:1031B0006C7465642E206B696C6C28292063616CCB
:1031C0006C6564210A00656E7175657565696E6769
:1031D0002022000000000000000000000000005756
:1031E00061726E696E673A20486F6D696E67204242
:1031F000756D702044697669736F72203C20310AC6
:10320000000000A0400000A040000000400000744A
:10321000430000CD4300007543FFFFFF20746F6F34
:10322000206C6F6E6720657874727573696F6E209D
:1032300070726576656E7465640A0020636F6C64F5
:1032400020657874727573696F6E2070726576652B
:103250006E7465640A0025753A2530327500253094
:1032600032753A2530327500257564202530327567
:103270003A25303275005A005900580009200000E4
:1032800000000000000000000000007FFFE00000E0
:10329000000000000000000000007000E0000000DE
:1032A00000000000000000000061F8600000000065
:1032B000000000000000000041F8200000000000B5
:1032C0000000000000000040F020000000000000AE
:1032D000000000000000406020000000000000002E
:1032E00000000000005801A07F80003FC0000000E7
:1032F000004104005C63A0FBC00079E00000000016
:103300002082005EF7A0F3C00076E00000000020FD
:1033100082005EF7A0EBC0007EE0000000004104E8
:10332000005C63A07B80003DC000000000820800BC
:103330005801A07B80003BC0000000010410004049
:103340006020FBC00077E00000000104100040F0A6
:1033500020FBC00070E00000000082080041F8205F
:10336000FFC0007FE00000000041040061F8603F02
:1033700000001F80000000000000007000E01E0040
:10338000000F0000000001FFFF807FFFE00C000045
:10339000060000000001FFFF8000000000000000A8
:1033A00000000000000000007FFFE00000000000BF
:1033B000000000000000007000E0000000000000BD
:1033C000000000000000630C60000000000000002E
:1033D0000000000000470E20000000000000000078
:1033E000000000004F0F200000000000000000005F
:1033F0000000005F0FA000000000000000000000BF
:1034000000005E07A07F80003FC000000000410474
:1034100000406020FBC00079E00000000020820036
:1034200040F020F3C00076E0000000002082004061
:10343000F020EBC0007EE00000000041040040608E
:10344000207B80003DC0000000008208005E07A0D5
:103450007B80003BC0000000010410005F0FA0FB58
:10346000C00077E0000000010410004F0F20FBC0F7
:103470000070E000000000820800470E20FFC0003E
:103480007FE000000000410400630C603F00001F6B
:1034900080000000000000007000E01E00000F002F
:1034A00000000001FFFF807FFFE00C00000600002D
:1034B000000001FFFF8000000000060900FE000080
:1034C00000000001090008FE0000050808060000D1
:1034D00040F0C88888987810050808060000C0F8F1
:1034E0008888888888F80505050600012030F830AE
:1034F000200508080600002070F820202020E005A4
:1035000009090600FF2070A8A8B88888702005095E
:10351000090600FFE080C0B0A82830282805090966
:103520000600FFF8A88888888888A8F8050A0A068F
:1035300000FE205050505088A8A88870030303064E
:10354000000340A04043616E6E6F74206F70656E23
:10355000207375626469722000206669727374005A
:103560005A0059005800486F6D6520002066697246
:1035700073740A005A0059005800486F6D652000A6
:103580006563686F3A001FFFFFFFFFFFFF600000E9
:10359000000001FF400000000000FF80000000006C
:1035A000007F83CF00000C303F87FF80000C301F6E
:1035B000867980000C000F8C30C7838C30E78C300C
:1035C000CFC7CC31F38C30DCECEC33B98C30D86C19
:1035D0006C33198C30D06C0C33198C30D86C0C33A4
:1035E000198C30DC6C0E3B198C30CF7C079F198C0A
:1035F00030C77C038F19400000000000026000000B
:10360000000000061FFFFFFFFFFFF870012C019074
:10361000012701B0012201C0011D01F001180110B4
:1036200002130130020E016002090190020401C080
:1036300002FF000003FA004003F5008003F000D011
:1036400003EB002004E6007004E100E004DC00402D
:1036500005D700C005D2004006CD00D006C80080C6
:1036600007C3003008BE00F008B900C009B400B0BC
:103670000AAF00B00BAA00D00CA500000EA00050AD
:103680000F9B00C01096005012910000148C00C0D7
:10369000158700B0178200B0197D00D01B7800009C
:1036A0001E730040206E0090226900F024640040E8
:1036B000275F0090295A00E02B5500102E50002063
:1036C000304B0010324600E033410090353C001092
:1036D00037370070383200A0392D00B03A2800A0EA
:1036E0003B2300603C1E00103D1900903D1400106B
:1036F0003E0F00703E0A00C03E0500003F00004043
:103700003FFBFF803FF6FFC03FF1FF4572726F72D3
:103710002064652074656D706572617475726100F6
:10372000546865726D616C2052756E6177617900C5
:103730004572726F723A20616C2063616C656E74C1
:1037400061720048656174696E67206661696C65C5
:10375000640030031001D00302017004F70010056B
:10376000ED00B005E5005006DD003008CC00100A81
:10377000BE00F00BB300700EA700F0109D00701398
:103780009400F0158C00D0178700B0198200901BB0
:103790007D00301C7B00D01C7A00701D7800101E4C
:1037A0007700B01E7500501F7400F01F720090204B
:1037B000710030216F00D0216E0070226C00102348
:1037C0006B00B023690050246800F0246600902547
:1037D000650030266400D026620070276100102842
:1037E0005F00B0285E0050295C00F0295B00902A41
:1037F0005A00302B5800D02B5700702C5500102D3C
:103800005400B02D5200502E5100F02E4F00902F3A
:103810004D0030304C00D0304A007031480010323A
:103820004700B032450050334300F033410090343C
:103830003F0030353E00D0353C007036390010373F
:103840003700B037350050383300F0383000903949
:103850002D00303A2A00D03A2700703B2400103C5B
:103860002000503D1700F03D1100903E0900003F40
:1038700000004572726F723A2054656D70204D6180
:103880007820506C6174004572726F723A205465F2
:103890006D70204D6178696D61004D415854454D02
:1038A0005020747269676765726564004572726F53
:1038B000723A2054656D70204D696E20506C6174B1
:1038C000004572726F723A2054656D70204D696EBA
:1038D000696D61004D494E54454D502074726967C1
:1038E000676572656400205A3A200020593A20002A
:1038F00042656420583A2000203D3D3D3D00202097
:1039000020200042696C696E656172204C657665A5
:103910006C696E6720477269643A0A200047322F4B
:1039200047332062616420706172616D65746572F5
:10393000730A0053442063617264206F6B0A006F46
:1039400070656E526F6F74206661696C65640A0001
:10395000766F6C756D652E696E6974206661696C31
:1039600065640A00534420696E6974206661696C5D
:103970000A004D3234004D323320257300577269EE
:1039800074696E6720746F2066696C653A20006FF9
:1039900070656E206661696C65642C2046696C6593
:1039A0003A20006F70656E206661696C65642C203A
:1039B00046696C653A200046696C652073656C65E4
:1039C000637465640A002053697A653A2000466989
:1039D0006C65206F70656E65643A20006F70656E6F
:1039E000206661696C65642C2046696C653A20002C
:1039F0002066696C653A20004E6F772000222070A7
:103A00006F73002220706172656E743A2200535504
:103A100042524F5554494E452043414C4C2074610D
:103A2000726765743A220050617261646120646556
:103A300020656D657267656E63696100747279698E
:103A40006E6720746F2063616C6C207375622D67E4
:103A5000636F64652066696C65732077697468209C
:103A6000746F6F206D616E79206C6576656C732E56
:103A7000204D4158206C6576656C2069733A00458D
:103A800072726F723A004D3630300043616D626978
:103A900061722066696C616D656E746F00466C754D
:103AA0006A6F203200466C756A6F203200466C7572
:103AB0006A6F203100466C756A6F203100466C7564
:103AC0006A6F00466C756A6F0056656E74696C614A
:103AD000646F720056656E74696C61646F72005039
:103AE0006C617461666F726D6100506C61746166C7
:103AF0006F726D6100426F7175696C6C612032008C
:103B0000426F7175696C6C61203200426F7175692A
:103B10006C6C61203100426F7175696C6C61203191
:103B20000056656C6F63696461640056656C6F6311
:103B300069646164004D656E75207072696E6369B9
:103B400070616C0050726563616C656E74617220A7
:103B5000504C41506C617461666F726D61005072BF
:103B60006563616C656E74617220504C41546F6482
:103B70006F0050726563616C656E74617220504CA9
:103B80004120320050726563616C656E7461722011
:103B9000504C412031005072657061726172006159
:103BA00075746F25692E670046696C2E2044696123
:103BB0002E20320046696C2E204469612E2032008E
:103BC00046696C2E204469612E20310046696C2EB6
:103BD000204469612E2031004170616761720045A7
:103BE0006E63656E646572004520696E206D6D338D
:103BF00000436F6E74726F6C0043616E6E6F742061
:103C0000656E746572207375626469723A20000291
:103C10002E2E004D656E75207072696E636970613D
:103C20006C004E6F20686179207461726A657461FE
:103C3000205344004D656E75206465205344004454
:103C40006574656E657220696D70726573696F6EFB
:103C5000005265616E7564617220696D7072657382
:103C6000696F6E0050617573617220696D70726565
:103C700073696F6E00436F6E74726F6C0050726583
:103C8000706172617200416A757374617200496E8D
:103C9000662E20496D707265736F7261004C757A83
:103CA00020636162696E61204F4E004C757A20631B
:103CB0006162696E61204F464600496E666F726DA3
:103CC0006163696F6E00526573656E643A2000200F
:103CD00042002050006F6B004E414E494E495459EE
:103CE000494E46CDCCCC3D0AD7233C17B7D13877C7
:103CF000CC2B329595E6241FB14F0A0000204100DD
:103D000000C84200401C4620BCBE4CCA1B0E5AAE26
:103D1000C59D7400D100D30011241FBECFEFD1E2A6
:103D2000DEBFCDBF00E00CBF15E0A0E0B2E0EEE8E2
:103D3000F2E302E00BBF02C007900D92A434B1077A
:103D4000D9F726E1A4E4B5E001C01D92A632B2077E
:103D5000E1F71EE1CBE8DEE100E006C021970109B2
:103D6000802FFE010F94F30CCA38D10780E00807BA
:103D7000A9F70F9492000D9435190C9400002F921E
:103D80003F924F925F926F927F928F929F92AF92EB
:103D9000BF92CF92DF92EF92FF920F931F93CF9338
:103DA000DF93CDB7DEB7CE58D1090FB6F894DEBF9A
:103DB0000FBECDBF0091020820E6029F80011124B2
:103DC0000E57194F10935B0500935A0580911215F9
:103DD00080FF18C0E0E8F5E384917F013FEFE31A2C
:103DE000F30A882321F00E94DA42F701F5CFD801C7
:103DF0008D918D01882319F00E94DA42F8CF8AE074
:103E00000E94DA4220915A0530915B05F9018081C8
:103E10002F5F3F4F8032D1F3F0935B05E0935A055B
:103E20008E3469F010915A0500915B056AE270E0EA
:103E3000812F902F0F9428100097D1F420C08181FA
:103E400090ED980F9A3010F08D3261F73296DF01C5
:103E500031962C9120532A30D0F3CD01FC010196EC
:103E600020812032D9F3F0935B05E0935A05DACF35
:103E7000FC0131968291803231F08A3221F0A12FFB
:103E8000B02F9D9102C01082F5CFFD018081119667
:103E90008032D9F380538A3020F0E0E8F5E30C94C7
:103EA000E53820E030E06AE0629FA001639F500D9A
:103EB00011249A01205331098191280F311D87FD6A
:103EC0003A95808180538A3078F38F013196D801FA
:103ED0008C918032D1F3109359050093580541E03D
:103EE00050E05093A90D4093A80D9D3411F40C940B
:103EF0009B27943511F40C94A138973411F00C944D
:103F0000C7382C31310509F47AC060F4243031050A
:103F100020F422303105F8F02AC02430310581F137
:103F20000C94DC382A35310509F474C750F42D316E
:103F3000310509F4DCC12E31310509F484C60C9435
:103F4000DC382B35310509F469C72C35310509F406
:103F50006AC70C94DC3880914F02882311F40C94CA
:103F6000DC380E941CE20E94DFB90C94DC3881E04E
:103F70002230310509F080E00E9490E20C94DC3898
:103F800080E50E946D40882329F00E94E7406B0184
:103F90007C0103C0C12CD12C760183E50E946D40C9
:103FA000882321F00E941B416B017C010E947E91BD
:103FB0000E9497428091AB0D9091AC0DA091AD0DF8
:103FC000B091AE0DC80ED91EEA1EFB1E809185026F
:103FD000811105C060E080ED91E00E94BB840E94E9
:103FE0007B66DC01CB018C199D09AE09BF09B7FDC9
:103FF00002C00C94DC3880E00E941CB7F0CF0E9415
:104000007E9180E00E9491E8F090681521E040E008
:1040100050E0BA0180E00E94E34F0E94BB4211E0F1
:104020001093390288E50E946D40D82E89E50E94E0
:104030006D40082F8AE50E946D40E82ED11004C023
:10404000011104C0182705C0011102C010E001C011
:10405000182F109300020E94FE3F111104C0D110CE
:1040600002C00023D9F120E030E040EA50E4609142
:1040700085157091861580918715909188150F94FC
:10408000FC0C2091791530917A1540917B15509157
:104090007C150F94FC0C6093BB0D7093BC0D80934A
:1040A000BD0D9093BE0D20914B1530914C15409154
:1040B0004D1550914E150F94440F18167CF419822B
:1040C0001A821B821C829E012F5F3F4F4BEB5DE0EB
:1040D00067E475E183E495E10E941C3F8091000252
:1040E000811102C0DD2021F080E090E00E94DBB46D
:1040F00080910002811102C0002321F081E090E054
:104100000E94DBB480910002811103C0EE2009F40B
:10411000DBC080915A06882321F080915B068111D3
:104120001EC060E088E092E00E94BB84E0E8F5E316
:1041300084918F010F5F1F4F882321F00E94DA4284
:10414000F801F6CFE7EFF1E084918F010F5F1F4F89
:10415000882309F4B9C00E94DA42F801F5CF0E9421
:10416000A34120E030E048EC52E460917D1570916D
:104170007E1580917F15909180150F94FC0C2091F5
:1041800071153091721540917315509174150F94FB
:10419000FC0C2B013C016093B30D7093B40D809324
:1041A000B50D9093B60D20E030E046E153E4609108
:1041B00081157091821580918315909184150F94CB
:1041C000FC0C209175153091761540917715509122
:1041D00078150F94FC0C4B015C016093B70D709344
:1041E000B80D8093B90D9093BA0D80914B159091B5
:1041F0004C15A0914D15B0914E158093BB0D909329
:10420000BC0DA093BD0DB093BE0D83EB9DE00E944D
:1042100094F48823E1F120916D1530916E15409151
:104220006F1550917015C301B2010F94FB0C609390
:10423000B30D7093B40D8093B50D9093B60D20918E
:10424000691530916A1540916B1550916C15C50137
:10425000B4010F94FB0C6093B70D7093B80D80936D
:10426000B90D9093BA0D19821A821B821C829E018D
:104270002F5F3F4F4BE455E167EB7DE083EB9DE023
:104280000E941C3F82E090E00E94DBB41DC060E011
:1042900089EE91E00E94BB84E0E8F5E384918F0110
:1042A0000F5F1F4F882321F00E94DA42F801F6CFFA
:1042B000EAEDF1E084918F010F5F1F4F882321F019
:1042C0000E94DA42F801F6CF0E94A34180918B0D43
:1042D000809339020E94A24221E040E050E0BA01FE
:1042E0008F2D0E94E34F0E94D1580C94DC380E941D
:1042F00052D081110C94DC3886E50E946D408823F1
:1043000039F00E94DA4066969FAF8EAF669706C07E
:10431000E1E0F0E06696FFAFEEAF669766962EADF1
:104320003FAD66972530310570F0E3E8F2E0849107
:104330008F010F5F1F4F882311F40C94DC380E940B
:10434000DA42F801F4CF84E40E946D402C968FAFDE
:104350002C9785E40E946D40A8968FAFA89766962B
:104360004EAD5FAD6697452BE9F0ECE6F2E0849147
:104370008F010F5F1F4F882321F00E94DA42F8015E
:10438000F6CF2C965FAD2C97552361F0E3E5F2E074
:1043900084918F010F5F1F4F882321F00E94DA4222
:1043A000F801F6CF83E50E946D40882349F00E9412
:1043B000F24020E030E040E752E40F94E80D04C002
:1043C00060E070E08AE793E4609301027093020278
:1043D00080930302909304028CE40E946D40882332
:1043E00019F00E94F24018C020E030E040E251E4B1
:1043F00060917D1570917E1580917F15909180154B
:104400000F94FC0C20917115309172154091731529
:10441000509174150F94FC0C0F94590E25967FAF94
:104420006EAF259782E50E946D40882319F00E94A7
:10443000F24018C020E030E046E053E460917D1582
:1044400070917E1580917F15909180150F94FC0CD2
:10445000209171153091721540917315509174151A
:104460000F94FC0C0F94590E8B0186E40E946D4052
:10447000882319F00E94F24018C020E030E040EE9E
:1044800052E460918115709182158091831590910D
:1044900084150F94FC0C2091751530917615409180
:1044A0007715509178150F94FC0C0F94590E1B0141
:1044B00082E40E946D40882319F00E94F24018C0E7
:1044C00020E030E04AEA53E4609181157091821552
:1044D00080918315909184150F94FC0C2091751593
:1044E0003091761540917715509178150F94FC0C0A
:1044F0000F94590E61967FAF6EAF61972596AEAD62
:10450000BFAD2597BD01BB0F880B990B0F94031509
:104510006A966CAF7DAF8EAF9FAF6A9780907D1526
:1045200090907E15A0907F15B0908015C090711569
:10453000D0907215E0907315F090741520E030E083
:10454000A901C501B4010F94FC0CA70196010F94B9
:10455000FC0C9B01AC016A966CAD7DAD8EAD9FAD40
:104560006A970F94FD1487FD11C0B1E06B96BFAF41
:104570006B97C80109972596EEADFFAD2597E81713
:10458000F90744F46B961FAE6B9704C0F1E06B968D
:10459000FFAF6B97B801012E000C880B990B0F949D
:1045A00003152B013C0120E030E044E753E4C50152
:1045B000B4010F94FC0CA70196010F94FC0C9B0115
:1045C000AC01C301B2010F94440F181684F021E02E
:1045D00028962FAF289725968EAD9FAD25970996E3
:1045E0008017910744F428961FAE289704C031E045
:1045F00028963FAF2897B101032C000C880B990B2C
:104600000F9403156F966CAF7DAF8EAF9FAF6F9712
:104610008090811590908215A0908315B09084159C
:10462000C0907515D0907615E0907715F0907815BC
:1046300020E030E0A901C501B4010F94FC0CA701F2
:1046400096010F94FC0C9B01AC016F966CAD7DAD97
:104650008EAD9FAD6F970F94FD1487FD10C041E0A4
:1046600064964FAF649761968EAD9FAD6197099741
:104670002816390644F464961FAE649704C051E0CE
:1046800064965FAF64976196AEADBFAD6197BD01B3
:10469000BB0F880B990B0F9403152B013C0120E0F5
:1046A00030E04DEC53E4C501B4010F94FC0CA701BC
:1046B00096010F94FC0C9B01AC01C301B2010F9455
:1046C000440FFF24F394181654F0C1010996619623
:1046D000EEADFFAD61978E179F070CF4F12C6B9632
:1046E000FFAD6B97F11112C028962FAD28972223AA
:1046F00029F084E492E00E943F7011C064963FADBF
:10470000649731110CC0F11013C01CC08CE492E00E
:104710000E943F7028964FAD28974111EACF6496CA
:104720005FAD6497552321F08CE392E00E943F70C7
:10473000FF2011F40C94DC3885E392E00E943F7076
:104740000C94DC380E947E918091D90D28968FAF11
:1047500028971092D90D2C969FAD2C97911106C0D9
:1047600084E690E00E9447FD0E94A3410E94BB4264
:1047700081E00E94EAE8882339F02896AFAD2897B7
:10478000A093D90D0C94DC3818A219A21AA21BA26E
:1047900019821A821B821C822596EEADFFAD2597E9
:1047A0000E1B1F0B17FF02C00F5F1F4F15950795BC
:1047B000B801012E000C880B990B0F940315A396DA
:1047C0006CAF7DAF8EAF9FAFA3976196AEACBFAC21
:1047D0006197A218B308B7FE03C0FFEFAF1ABF0A74
:1047E000B594A794B5010B2C000C880B990B0F9472
:1047F0000315A7966CAF7DAF8EAF9FAFA797C09004
:104800005002D0905102E0905202F09053028AE59B
:104810000E946D40882351F00E94F2409B01AC0140
:10482000C701B6010F94FC0C6B017C016091380646
:1048300070913906072E000C880B990B0F94031505
:104840009B01AC01A3966CAD7DAD8EAD9FADA397E2
:104850000F94FD14811129C060913A0670913B06B6
:10486000072E000C880B990B0F9403159B01AC01CC
:10487000A7966CAD7DAD8EAD9FADA7970F94FD143F
:10488000811113C0809134069091350625962EAD86
:104890003FAD25972817390741F48091360690914E
:1048A00037062816390609F452C028963FAD2897D6
:1048B0003093D90D0E94B1E8109339060093380661
:1048C000B0923B06A0923A0620917D1530917E155C
:1048D00040917F15509180156A966CAD7DAD8EAD7F
:1048E0009FAD6A970F94FB0C209171153091721552
:1048F00040917315509174150F94FB0C0F94590E41
:10490000709335066093340620918115309182159D
:1049100040918315509184156F966CAD7DAD8EAD31
:104920009FAD6F970F94FB0C209175153091761504
:1049300040917715509178150F94FB0C0F94590EF8
:10494000709337066093360628961FAE289741E08D
:1049500060964FAF609725961FAE1EAE259751E02B
:1049600064965FAF649783E06B968FAF6B97312C43
:1049700060962FAD609731E0232760962FAF609748
:1049800025968EAD9FAD2597092E000CAA0BBB0B6B
:10499000AC968CAF9DAFAEAFBFAFAC976B962FAD63
:1049A0006B97321609F4A6C0632D032C000C770B0D
:1049B000880B990B0F9403159B01AC01A3966CAD6A
:1049C0007DAD8EAD9FADA3970F9462159B01AC0199
:1049D0006A966CAD7DAD8EAD9FAD6A970F94FC0C61
:1049E0002B013C01AC966CAD7DAD8EAD9FADAC970F
:1049F0000F9403159B01AC01A7966CAD7DAD8EADF8
:104A00009FADA7970F9462159B01AC016F966CAD9B
:104A10007DAD8EAD9FAD6F970F94FC0C4B015C018B
:104A200020E030E0A901C301B2010F94FD1487FD1D
:104A300005C020E030E040E05FE303C020E030E06C
:104A4000A901C301B2010F94FC0C0F948E0E68A350
:104A500079A38AA39BA320E030E0A901C501B4019A
:104A60000F94FD1487FD05C020E030E040E05FE3D7
:104A700003C020E030E0A901C501B4010F94FC0C93
:104A80000F948E0E69837A838B839C8366962EADFA
:104A90003FAD6697A8964FADA897BE016F5F7F4F59
:104AA000CE0180960E9434E9232D032C000C330B99
:104AB0008901000F111F020F131F2596AEADBFAD68
:104AC00025970A0F1B1F000F111F000F111F005FFA
:104AD000194FA70196010F94FC0CF80160837183B4
:104AE0008283938380E00E941CB76496FFAD649735
:104AF0003F0E54CF25964EAD5FAD25974F5F5F4F6C
:104B000025965FAF4EAF259743305105C9F06096AB
:104B10009FAD609791110BC0AFEF6496AFAF6497F4
:104B2000BFEF6B96BFAF6B97F2E03F2E21CFE1E076
:104B30006496EFAF6497F3E06B96FFAF6B9717CF78
:104B400080E00E94EAE8882339F028965FAD289734
:104B50005093D90D0C94DC380E94A2422C968FAD54
:104B60002C9781112BC011E042E0D42ECC24C394A9
:104B700090E0FD2CF11A01E0090FEC2CE91A21E07C
:104B800041E06E2D812F0F946E0821E04FEF6E2DC6
:104B90008F2D0F946E082FEF41E0602F812F0F941F
:104BA0006E082FEF4FEF602F8F2D0F946E0891E05E
:104BB000023009F7112311F010E0DACF0F94CA0781
:104BC0002C969FAD2C97911118C083E495E10E941B
:104BD00093FD9B01AC0160914B1570914C15809138
:104BE0004D1590914E150F94FB0C60934B157093DF
:104BF0004C1580934D1590934E1588E192E090935B
:104C00001115809310150E9440410E947E910E94D0
:104C1000D15881E090E09093A90D8093A80D2C9637
:104C2000AFAD2C97AA2321F028968FAD289701C00D
:104C300081E08093D90D882311F40C94DC380E9414
:104C4000A3410C94DC3888E50E946D40882319F05C
:104C50000E94F24012C020916D1530916E15409166
:104C60006F155091701560914315709144158091A6
:104C70004515909146150F94FC0C23966CAF7DAFB3
:104C80008EAF9FAF239789E50E946D40882319F06E
:104C90000E94F24012C02091691530916A1540912E
:104CA0006B1550916C156091471570914815809166
:104CB000491590914A150F94FC0C68A379A38AA317
:104CC0009BA323960CAD1DAD2EAD3FAD239709835D
:104CD0001A832B833C836D837E838F83988720E0A8
:104CE00030E0A90160918515709186158091871536
:104CF000909188150F94FC0C2091791530917A15BC
:104D000040917B1550917C150F94FC0C69877A8734
:104D10008B879C87CE0101960E9494F4882311F41E
:104D20000C94DC3883E50E946D40882321F00E94BA
:104D3000AF40482F01C041E080E0C257DF4F4883B9
:104D4000CE58D0400E9491E80E94BB4221E030E062
:104D5000C257DF4F4881CE58D040BE01605E7F4FC2
:104D6000CE01CF960E9434E96B017C01E5EBF2E0C5
:104D700084918F010F5F1F4F882321F00E94DA4238
:104D8000F801F6CF27E137EB41ED58E323966CAD00
:104D90007DAD8EAD9FAD23970F94FC0C42E00E9439
:104DA000C846E0EBF2E084918F010F5F1F4F88232C
:104DB00021F00E94DA42F801F6CF27E137EB41ED0E
:104DC00058E368A179A18AA19BA10F94FC0C42E051
:104DD0000E94C846EBEAF2E084918F010F5F1F4FFB
:104DE000882321F00E94DA42F801F6CF27E137EB61
:104DF00041ED58E3C701B6010F94FC0C42E00E945C
:104E0000C8468AE00E94DA420E94A2420E94D1581B
:104E10000C94DC38109257050C94DC3881E08093B8
:104E200057050C94DD3885E40E946D40B82E811141
:104E300002C00E947E9197E5892E93E0992E23E48B
:104E4000C22E25E1D22E31E7E32E35E1F32E00E02C
:104E500010E0A12CF40181914F010E946D40882344
:104E600009F44CC0D6012D913D914D915C91C557EF
:104E7000DF4F2883CB58D040C457DF4F3883CC58FE
:104E8000D040C257DF4F4883CE58D040C357DF4F82
:104E90005883CD58D0400E94F240F6016083718360
:104EA00082839383C557DF4F2881CB58D040C457A6
:104EB000DF4F3881CC58D040C257DF4F4881CE58A1
:104EC000D040C357DF4F5881CD58D0400330110533
:104ED000A9F00F94FB0C9B01AC01D7016D917D9162
:104EE0008D919C910F94FC0CF701608371838283F8
:104EF0009383C8010E94F041AA24A3940F5F1F4F1F
:104F0000F4E0CF0ED11C24E0E20EF11C04301105B8
:104F100009F0A0CFAA2019F00E94A34108C0BB202D
:104F200031F08091681590E003960E9493F50E94FD
:104F3000D1580C94DC382237310511F40C94CB3164
:104F400008F0D1C02B34310509F42AC608F054C04A
:104F50002931310509F4C5C238F52431310509F488
:104F60006CC290F42131310509F454C230F422307E
:104F7000310508F4D3C10C94DC382231310511F429
:104F80000C94F1300C94DC382631310509F491C2CF
:104F900008F48BC22731310509F491C2283131055B
:104FA00009F494C20C94DC382F31310509F408C59A
:104FB00080F42B31310509F4A6C208F496C22C31D5
:104FC000310509F4DCC22E31310509F4DFC20C943D
:104FD000DC382132310509F422C408F4DAC32A325C
:104FE000310509F495C52033310511F00C94DC38F6
:104FF0000E9478700C94DC382836310509F4DCC541
:1050000008F047C02235310511F40C94EA3068F5F8
:105010002D34310509F4CCC508F4C6C52035310559
:1050200011F40C94DD302135310511F00C94DC388D
:105030000E9427DD0E947E910E949EB61092F0058C
:105040001092EF0568EE73E080E090E00E94436606
:10505000269A2E9A10923A0260E081E994E00E942A
:10506000BB840E94E1840C94DC382435310511F4B2
:105070000C94F13010F40C94ED302535310511F419
:105080000C941E312C35310511F40C942F310C94F5
:10509000DC382D36310509F4C6C6A8F42A363105A8
:1050A00011F40C94A53008F4A1C62B36310511F487
:1050B0000C94CB302C36310511F00C94DC38109266
:1050C000EB020C94DC382F36310509F4D8C508F40E
:1050D000C3C52037310509F43EC62137310509F42F
:1050E00042C60C94DC382C3241E0340711F40C94A5
:1050F000083308F092C0293C310511F40C94BD32FC
:1051000008F03FC02937310511F40C94443200F502
:105110002537310511F40C94D93148F42337310582
:1051200011F00C94DC38EAEAF4E00C94CE31273725
:10513000310511F40C94DE312837310511F00C944F
:10514000DC3881E08093390280938B0D0C94DD383C
:105150002139310511F40C94493230F42C383105E1
:1051600009F42DC60C94DC382E3B310509F45FC6DA
:10517000283C310511F00C94DC380E9467580C94DF
:10518000DC38233D310511F40C94FF3248F52C3CFA
:10519000310511F40C94C03248F42B3C310511F068
:1051A0000C94DC380E94FC570C94DC382D3C310503
:1051B00011F40C94C3322E3C310511F00C94DC3800
:1051C00017E5A12E13E0B12E03E4C02E05E1D02E89
:1051D0008DE7E82E85E1F82E00E010E00C94C63251
:1051E0002C3D310511F40C94023348F42A3D31056D
:1051F00011F00C94DC380E9426560C94DC382D3DBE
:10520000310511F40C940533223E310511F00C9454
:10521000DC380E94A5550C94DC382C3A81E0380724
:1052200011F40C94243790F52039A1E03A0711F4D9
:105230000C948536B0F42E32E1E03E0711F40C9464
:10524000313310F40C942E332F3241E0340711F433
:105250000C9434332336314011F40C9448380C94B8
:10526000DC38223981E0380711F40C948C3610F4C4
:105270000C9488362A39A1E03A0709F470C5243A1B
:10528000314011F40C9490360C94DC382835E2E06F
:105290003E0711F40C944538F8F4253F41E03407FB
:1052A00011F40C94393848F4243F314011F00C9437
:1052B000DC380E94205A0C94DC38263F91E03907F4
:1052C00011F40C943C38273F314011F00C94DC3839
:1052D0000E9440540C94DC382535B3E03B0711F4B0
:1052E0000C94423878F42335F3E03F0711F40C9422
:1052F0003F382435334011F00C94DC380E94C353FE
:105300000C94DC38203A53E0350709F455C3273EA6
:10531000334011F40C9492380C94DC3880E50E94F0
:105320006D40882361F00E94E7406B017C01BB2443
:10533000B394672B682B692B31F4B12C04C0B12CCA
:10534000C12CD12C760183E50E946D40882399F011
:105350000E941B416B017C01B1100FC0672B682BB1
:10536000692B59F4D8018C91882339F061E0C80188
:105370000E94D08407C0BB20A9F360E087EE92E0D2
:105380000E94BB8481E080931E0883E090E09093AC
:10539000A90D8093A80D0E947E910E949742C1148E
:1053A000D104E104F104F1F08091AB0D9091AC0DCA
:1053B000A091AD0DB091AE0DC80ED91EEA1EFB1E18
:1053C0000E947B66DC01CB018C199D09AE09BF09E7
:1053D000B7FF1CC080911E088823C1F080E00E94A6
:1053E0001CB7EECF80911E08882321F080E00E9438
:1053F0001CB7F8CF8091F30E60E0882319F085ED9B
:1054000092E002C08DEB92E00E94BB8410921E08D5
:105410000C94DC3860E089EF92E00E94BB845F98D6
:105420008A989FB7F894809108018E7F8093080135
:105430009FBF129847980C94DC38E7E1F3E0849121
:105440008F010F5F1F4F882321F00E94DA42F8017D
:10545000F6CF109279111092781140E050E0BA0125
:1054600084E29FE00E94699960E27FE0CE010196AC
:105470000E94F35F40E050E0BE016F5F7F4F8DEF11
:1054800094E00E943FD3CE0101960E9496B6E8E0D8
:10549000F3E084918F010F5F1F4F882311F40C9468
:1054A000DC380E94DA42F801F4CF0E9484EE0C94BA
:1054B000DC381092F30E1092F40E0C94DC3840E0BD
:1054C00061E0C8010E9410EC0C94DC388091F40E6D
:1054D000882319F081E08093F30E0E94E3F50C9489
:1054E000DC381092F30E0C94DC388091F40E882393
:1054F00011F40C94DC3883E50E946D4081110C940A
:1055000000390C94DC388091F40E882351F1E8E2E4
:10551000F3E084918F010F5F1F4F882321F00E94D9
:10552000DA42F801F6CF60916F117091701180919D
:105530007111909172114AE00E9407438FE20E941C
:10554000DA4260916B1170916C1180916D119091A4
:105550006E114AE00E9407438AE00E94DA420C94EE
:10556000DC38EAE3F3E084918F010F5F1F4F88235B
:1055700011F40C94DC380E94DA42F801F4CF40E0D8
:1055800060E0C8010E9410EC0C94DC388091F40EAD
:10559000882311F40C94DC388EEB90E10E94796240
:1055A0008EEB90E10E94529A1092F20E1092F10E40
:1055B000E0905805F09059058091F40E882311F47D
:1055C0000C94DC380E9405ECFE0131966F01CF018E
:1055D0000E941D6080E29FE09093400F80933F0FF8
:1055E000D7018C918F3209F060C06FE270E0C70183
:1055F0000F9428108C010F5F1F4F09F45CC06FE2FD
:1056000070E0C8010F9428105C01009709F454C0A1
:105610000817190708F050C04C01801A910AA4011C
:10562000B801CE0180960F945110E0E2F0E0EC0F4B
:10563000FD1FE80DF91D10828E01005E1F4FF8015D
:1056400081918F01882319F00E94DA42F8CF8AE015
:105650000E94DA4260913F0F7091400F6115710511
:1056600011F06C5F7F4F21E0AE01405E5F4FCE01D5
:1056700005960E9417A0811112C0BE01605E7F4F87
:1056800081E793E00E94E1428EE20E94DA428AE0E2
:105690000E94DA42C6010E9496B60C94DC38D09281
:1056A000400FC0923F0F8501A6CF81E49FE0909309
:1056B000400F80933F0F870160913F0F7091400F23
:1056C0006115710511F06C5F7F4F18A21BA222E0DB
:1056D000A801CE0180960E9417A0811102C0F12C72
:1056E00014C0CE0180960E94ADD28823C1F361E040
:1056F000CE0180960E945B9A009789F325EEDC012B
:105700002C931BA20E942760F82ECE0180960E9447
:105710003B42FF2009F1EBE4F3E084917F01BFEF0E
:10572000EB1AFB0A882321F00E94DA42F701F5CF39
:10573000F80181918F01882319F00E94DA42F8CF95
:105740008AE00E94DA4210926F111092701110924A
:1057500071111092721118C0E9E5F3E084917F0194
:105760002FEFE21AF20A882321F00E94DA42F701B1
:10577000F5CFD8018D918D01882319F00E94DA426E
:10578000F8CF8EE20E94DA42C6010E9496B60C94CF
:10579000DC388091F30E81110E947E9100915805B2
:1057A0001091590561E270E0C8010F94281000972C
:1057B00019F08C010F5F1F4F80E50E946D40882318
:1057C00049F0FF24F394809144059091450580179A
:1057D000910708F0F12C8091F40E882311F40C94B9
:1057E000DC384F2D61E0C8010E9410EC83E50E9477
:1057F0006D40882349F080914405909145058017BC
:10580000910710F40C9411398091F40E882319F04B
:1058100081E08093F30EF1100C94DC385ECE82E0D0
:1058200090E09093791180937811F8010190002015
:10583000E9F731975F01A01AB10AF801CF01801B87
:10584000910B8A159B0534F480818F3209F4108204
:105850003196F4CF60E27FE0CE0180960E94F35F44
:10586000E12CF12C8BE1782EEA14FB040CF09BC0A8
:10587000F801EE0DFF1D8081811103C0BFEFEB1A0F
:10588000FB0A6801CE0CDF1CF6018081882309F435
:105890008AC0FFEFEF1AFF0AF801EE0DFF1D8081AD
:1058A0008111F7CF40E050E0BA01CE0184960E940A
:1058B0006999BE01605E7F4FCE0101960E94F35F41
:1058C000A601BE016F5F7F4F8DEF94E00E943FD332
:1058D000CE0101960E9496B68FE20E94DA42809134
:1058E000030F882319F083E09FE002C087E694E06D
:1058F0004C01D4018D914D01882319F00E94DA42A8
:10590000F8CF8091F50E882309F44DC0CE010196A1
:105910000E941D6021E0A601BE016C5D7F4FCE019B
:1059200005960E9417A0811128C08AE00E94DA42E1
:10593000E0E8F5E384918F010F5F1F4F882321F08A
:105940000E94DA42F801F6CFE5E8F3E084918F0196
:105950000F5F1F4F882321F00E94DA42F801F6CF33
:10596000F60181916F01882319F00E94DA42F8CF85
:10597000CE0101960E9496B616C0CE0184960E9472
:10598000529AFE013596DE019496872D01900D9274
:105990008A95E1F78B819C819BA38AA3CE01019616
:1059A0000E9496B661CF8AE00E94DA42CE018096CC
:1059B0000E9496B60C94DC380E9434700C94DC384B
:1059C0000E9477D2BCE3CB2ED12CE12CF12CA70185
:1059D00096010F94D818762E672ECA01B901A70137
:1059E00096010F94D8186B017C01CA01B90128E116
:1059F00030E040E050E00F94D8184B015C01C90141
:105A00006DE671E00F94CC0C8E010F5F1F4F611596
:105A1000710599F06F927F92DF92CF929F928F9251
:105A20009F938F937F936F9381EC93E09F938F93DA
:105A30001F930F930F94CE1412C00097B1F06F9282
:105A40007F92DF92CF929F928F929F938F9381EB61
:105A500093E09F938F931F930F930F94CE140FB6E1
:105A6000F894DEBF0FBECDBF36C081149104A104EF
:105A7000B10479F06F927F92DF92CF929F928F92D2
:105A800085EA93E09F938F931F930F930F94CE1407
:105A9000E6CFC114D104E104F10469F06F927F9262
:105AA000DF92CF928DE993E09F938F931F930F9393
:105AB0000F94CE14D4CF6F927F9289E993E09F9395
:105AC0008F931F930F930F94CE140F900F900F90FE
:105AD0000F900F900F9060E0C8010E94D084E0E822
